{
  "contractName": "Orderbook",
  "abi": [
    {
      "inputs": [
        {
          "internalType": "address",
          "name": "Base",
          "type": "address"
        },
        {
          "internalType": "address",
          "name": "Counter",
          "type": "address"
        }
      ],
      "payable": false,
      "stateMutability": "nonpayable",
      "type": "constructor"
    },
    {
      "anonymous": false,
      "inputs": [
        {
          "indexed": true,
          "internalType": "uint256",
          "name": "Order_No",
          "type": "uint256"
        },
        {
          "indexed": false,
          "internalType": "uint256",
          "name": "Amt",
          "type": "uint256"
        },
        {
          "indexed": false,
          "internalType": "uint256",
          "name": "Price",
          "type": "uint256"
        },
        {
          "indexed": false,
          "internalType": "address",
          "name": "trader",
          "type": "address"
        }
      ],
      "name": "BuyAdded",
      "type": "event"
    },
    {
      "anonymous": false,
      "inputs": [
        {
          "indexed": true,
          "internalType": "uint256",
          "name": "Order_No",
          "type": "uint256"
        },
        {
          "indexed": false,
          "internalType": "uint256",
          "name": "Amt",
          "type": "uint256"
        },
        {
          "indexed": false,
          "internalType": "uint256",
          "name": "Price",
          "type": "uint256"
        },
        {
          "indexed": false,
          "internalType": "address",
          "name": "trader",
          "type": "address"
        }
      ],
      "name": "SellAdded",
      "type": "event"
    },
    {
      "anonymous": false,
      "inputs": [
        {
          "indexed": true,
          "internalType": "uint256",
          "name": "Order_No",
          "type": "uint256"
        },
        {
          "indexed": false,
          "internalType": "uint256",
          "name": "Amt",
          "type": "uint256"
        },
        {
          "indexed": false,
          "internalType": "uint256",
          "name": "Price",
          "type": "uint256"
        },
        {
          "indexed": false,
          "internalType": "address",
          "name": "maker",
          "type": "address"
        },
        {
          "indexed": false,
          "internalType": "address",
          "name": "taker",
          "type": "address"
        }
      ],
      "name": "TradeAdd",
      "type": "event"
    },
    {
      "constant": true,
      "inputs": [],
      "name": "ERC20Base",
      "outputs": [
        {
          "internalType": "contract ERC20",
          "name": "",
          "type": "address"
        }
      ],
      "payable": false,
      "stateMutability": "view",
      "type": "function"
    },
    {
      "constant": true,
      "inputs": [],
      "name": "ERC20Counter",
      "outputs": [
        {
          "internalType": "contract ERC20",
          "name": "",
          "type": "address"
        }
      ],
      "payable": false,
      "stateMutability": "view",
      "type": "function"
    },
    {
      "constant": false,
      "inputs": [
        {
          "internalType": "uint256",
          "name": "Amt",
          "type": "uint256"
        },
        {
          "internalType": "uint256",
          "name": "BuyPrice",
          "type": "uint256"
        }
      ],
      "name": "addBuy",
      "outputs": [
        {
          "internalType": "uint256",
          "name": "",
          "type": "uint256"
        }
      ],
      "payable": false,
      "stateMutability": "nonpayable",
      "type": "function"
    },
    {
      "constant": false,
      "inputs": [
        {
          "internalType": "uint256",
          "name": "Amt",
          "type": "uint256"
        },
        {
          "internalType": "uint256",
          "name": "SellPrice",
          "type": "uint256"
        }
      ],
      "name": "addSell",
      "outputs": [
        {
          "internalType": "uint256",
          "name": "",
          "type": "uint256"
        }
      ],
      "payable": false,
      "stateMutability": "nonpayable",
      "type": "function"
    },
    {
      "constant": true,
      "inputs": [],
      "name": "viewLengthBuy",
      "outputs": [
        {
          "internalType": "uint256",
          "name": "",
          "type": "uint256"
        }
      ],
      "payable": false,
      "stateMutability": "view",
      "type": "function"
    },
    {
      "constant": true,
      "inputs": [],
      "name": "viewLengthSell",
      "outputs": [
        {
          "internalType": "uint256",
          "name": "",
          "type": "uint256"
        }
      ],
      "payable": false,
      "stateMutability": "view",
      "type": "function"
    },
    {
      "constant": true,
      "inputs": [
        {
          "internalType": "uint256",
          "name": "OrderNo",
          "type": "uint256"
        }
      ],
      "name": "viewBuy",
      "outputs": [
        {
          "internalType": "uint256",
          "name": "",
          "type": "uint256"
        },
        {
          "internalType": "uint256",
          "name": "",
          "type": "uint256"
        },
        {
          "internalType": "uint256",
          "name": "",
          "type": "uint256"
        },
        {
          "internalType": "address",
          "name": "",
          "type": "address"
        }
      ],
      "payable": false,
      "stateMutability": "view",
      "type": "function"
    },
    {
      "constant": true,
      "inputs": [
        {
          "internalType": "uint256",
          "name": "OrderNo",
          "type": "uint256"
        }
      ],
      "name": "viewSell",
      "outputs": [
        {
          "internalType": "uint256",
          "name": "",
          "type": "uint256"
        },
        {
          "internalType": "uint256",
          "name": "",
          "type": "uint256"
        },
        {
          "internalType": "uint256",
          "name": "",
          "type": "uint256"
        },
        {
          "internalType": "address",
          "name": "",
          "type": "address"
        }
      ],
      "payable": false,
      "stateMutability": "view",
      "type": "function"
    },
    {
      "constant": false,
      "inputs": [
        {
          "internalType": "uint256",
          "name": "OrderNo",
          "type": "uint256"
        },
        {
          "internalType": "uint256",
          "name": "Amt",
          "type": "uint256"
        },
        {
          "internalType": "uint256",
          "name": "TradePrice",
          "type": "uint256"
        },
        {
          "internalType": "uint256",
          "name": "trade_type",
          "type": "uint256"
        }
      ],
      "name": "trade",
      "outputs": [
        {
          "internalType": "uint256",
          "name": "",
          "type": "uint256"
        },
        {
          "internalType": "uint256",
          "name": "",
          "type": "uint256"
        },
        {
          "internalType": "address",
          "name": "",
          "type": "address"
        }
      ],
      "payable": false,
      "stateMutability": "nonpayable",
      "type": "function"
    },
    {
      "constant": false,
      "inputs": [],
      "name": "decommission",
      "outputs": [],
      "payable": false,
      "stateMutability": "nonpayable",
      "type": "function"
    }
  ],
  "bytecode": "0x608060405234801561001057600080fd5b506040516124813803806124818339818101604052604081101561003357600080fd5b81019080805190602001909291908051906020019092919050505081600260006101000a81548173ffffffffffffffffffffffffffffffffffffffff021916908373ffffffffffffffffffffffffffffffffffffffff16021790555080600360006101000a81548173ffffffffffffffffffffffffffffffffffffffff021916908373ffffffffffffffffffffffffffffffffffffffff16021790555033600460006101000a81548173ffffffffffffffffffffffffffffffffffffffff021916908373ffffffffffffffffffffffffffffffffffffffff160217905550505061235f806101226000396000f3fe608060405234801561001057600080fd5b506004361061009e5760003560e01c80635eef2925116100665780635eef29251461025f578063643380c81461027d5780637f068c0f146102c7578063ad3a39b0146102d1578063f73d594c1461036b5761009e565b806322f7092a146100a357806328ce6014146100c15780632a6e7437146101445780634930983f146101905780634b82007014610213575b600080fd5b6100ab6103b5565b6040518082815260200191505060405180910390f35b6100ed600480360360208110156100d757600080fd5b81019080803590602001909291905050506103c1565b604051808581526020018481526020018381526020018273ffffffffffffffffffffffffffffffffffffffff1673ffffffffffffffffffffffffffffffffffffffff16815260200194505050505060405180910390f35b61017a6004803603604081101561015a57600080fd5b81019080803590602001909291908035906020019092919050505061047e565b6040518082815260200191505060405180910390f35b6101bc600480360360208110156101a657600080fd5b8101908080359060200190929190505050610767565b604051808581526020018481526020018381526020018273ffffffffffffffffffffffffffffffffffffffff1673ffffffffffffffffffffffffffffffffffffffff16815260200194505050505060405180910390f35b6102496004803603604081101561022957600080fd5b810190808035906020019092919080359060200190929190505050610820565b6040518082815260200191505060405180910390f35b610267610af7565b6040518082815260200191505060405180910390f35b610285610b04565b604051808273ffffffffffffffffffffffffffffffffffffffff1673ffffffffffffffffffffffffffffffffffffffff16815260200191505060405180910390f35b6102cf610b2a565b005b61031b600480360360808110156102e757600080fd5b8101908080359060200190929190803590602001909291908035906020019092919080359060200190929190505050610f70565b604051808481526020018381526020018273ffffffffffffffffffffffffffffffffffffffff1673ffffffffffffffffffffffffffffffffffffffff168152602001935050505060405180910390f35b61037361225d565b604051808273ffffffffffffffffffffffffffffffffffffffff1673ffffffffffffffffffffffffffffffffffffffff16815260200191505060405180910390f35b60008080549050905090565b600080600080600060018603815481106103d757fe5b906000526020600020906004020160000154600060018703815481106103f957fe5b9060005260206000209060040201600101546000600188038154811061041b57fe5b9060005260206000209060040201600201546000600189038154811061043d57fe5b906000526020600020906004020160030160009054906101000a900473ffffffffffffffffffffffffffffffffffffffff1693509350935093509193509193565b6000600260009054906101000a900473ffffffffffffffffffffffffffffffffffffffff1673ffffffffffffffffffffffffffffffffffffffff166323b872dd33306104d3868861228390919063ffffffff16565b6040518463ffffffff1660e01b8152600401808473ffffffffffffffffffffffffffffffffffffffff1673ffffffffffffffffffffffffffffffffffffffff1681526020018373ffffffffffffffffffffffffffffffffffffffff1673ffffffffffffffffffffffffffffffffffffffff1681526020018281526020019350505050602060405180830381600087803b15801561056f57600080fd5b505af1158015610583573d6000803e3d6000fd5b505050506040513d602081101561059957600080fd5b81019080805190602001909291905050505060006040518060a001604052808581526020018481526020014281526020013373ffffffffffffffffffffffffffffffffffffffff1681526020017f41000000000000000000000000000000000000000000000000000000000000007dffffffffffffffffffffffffffffffffffffffffffffffffffffffffffff19168152509080600181540180825580915050906001820390600052602060002090600402016000909192909190915060008201518160000155602082015181600101556040820151816002015560608201518160030160006101000a81548173ffffffffffffffffffffffffffffffffffffffff021916908373ffffffffffffffffffffffffffffffffffffffff16021790555060808201518160030160146101000a81548161ffff021916908360f01c02179055505050506000805490507f3e2753551927f57b3413932d664aa709bf88101e7738c42a259e2ecf60d6bddd848433604051808481526020018381526020018273ffffffffffffffffffffffffffffffffffffffff1673ffffffffffffffffffffffffffffffffffffffff168152602001935050505060405180910390a2600080549050905092915050565b60008060008060018086038154811061077c57fe5b90600052602060002090600402016000015460018087038154811061079d57fe5b9060005260206000209060040201600101546001808803815481106107be57fe5b9060005260206000209060040201600201546001808903815481106107df57fe5b906000526020600020906004020160030160009054906101000a900473ffffffffffffffffffffffffffffffffffffffff1693509350935093509193509193565b6000600360009054906101000a900473ffffffffffffffffffffffffffffffffffffffff1673ffffffffffffffffffffffffffffffffffffffff166323b872dd3330866040518463ffffffff1660e01b8152600401808473ffffffffffffffffffffffffffffffffffffffff1673ffffffffffffffffffffffffffffffffffffffff1681526020018373ffffffffffffffffffffffffffffffffffffffff1673ffffffffffffffffffffffffffffffffffffffff1681526020018281526020019350505050602060405180830381600087803b1580156108ff57600080fd5b505af1158015610913573d6000803e3d6000fd5b505050506040513d602081101561092957600080fd5b81019080805190602001909291905050505060016040518060a001604052808581526020018481526020014281526020013373ffffffffffffffffffffffffffffffffffffffff1681526020017f41000000000000000000000000000000000000000000000000000000000000007dffffffffffffffffffffffffffffffffffffffffffffffffffffffffffff19168152509080600181540180825580915050906001820390600052602060002090600402016000909192909190915060008201518160000155602082015181600101556040820151816002015560608201518160030160006101000a81548173ffffffffffffffffffffffffffffffffffffffff021916908373ffffffffffffffffffffffffffffffffffffffff16021790555060808201518160030160146101000a81548161ffff021916908360f01c02179055505050506001805490507feec31938dcc0f8ccd70365d0386d9c921102ec65dabec56679110a206d645400848433604051808481526020018381526020018273ffffffffffffffffffffffffffffffffffffffff1673ffffffffffffffffffffffffffffffffffffffff168152602001935050505060405180910390a2600180549050905092915050565b6000600180549050905090565b600360009054906101000a900473ffffffffffffffffffffffffffffffffffffffff1681565b600460009054906101000a900473ffffffffffffffffffffffffffffffffffffffff1673ffffffffffffffffffffffffffffffffffffffff163373ffffffffffffffffffffffffffffffffffffffff1614610b8457600080fd5b60008090505b60008054905081111580610ba357506001805490508111155b15610f6d576000805490508111610da0576000808281548110610bc257fe5b9060005260206000209060040201600001549050610c0760008381548110610be657fe5b9060005260206000209060040201600101548261228390919063ffffffff16565b9050600260009054906101000a900473ffffffffffffffffffffffffffffffffffffffff1673ffffffffffffffffffffffffffffffffffffffff1663a9059cbb60008481548110610c5457fe5b906000526020600020906004020160030160009054906101000a900473ffffffffffffffffffffffffffffffffffffffff16836040518363ffffffff1660e01b8152600401808373ffffffffffffffffffffffffffffffffffffffff1673ffffffffffffffffffffffffffffffffffffffff16815260200182815260200192505050602060405180830381600087803b158015610cf057600080fd5b505af1158015610d04573d6000803e3d6000fd5b505050506040513d6020811015610d1a57600080fd5b81019080805190602001909291905050505060008281548110610d3957fe5b9060005260206000209060040201600080820160009055600182016000905560028201600090556003820160006101000a81549073ffffffffffffffffffffffffffffffffffffffff02191690556003820160146101000a81549061ffff02191690555050505b6001805490508111610f6057600360009054906101000a900473ffffffffffffffffffffffffffffffffffffffff1673ffffffffffffffffffffffffffffffffffffffff1663a9059cbb60018381548110610df757fe5b906000526020600020906004020160030160009054906101000a900473ffffffffffffffffffffffffffffffffffffffff1660018481548110610e3657fe5b9060005260206000209060040201600001546040518363ffffffff1660e01b8152600401808373ffffffffffffffffffffffffffffffffffffffff1673ffffffffffffffffffffffffffffffffffffffff16815260200182815260200192505050602060405180830381600087803b158015610eb157600080fd5b505af1158015610ec5573d6000803e3d6000fd5b505050506040513d6020811015610edb57600080fd5b81019080805190602001909291905050505060018181548110610efa57fe5b9060005260206000209060040201600080820160009055600182016000905560028201600090556003820160006101000a81549073ffffffffffffffffffffffffffffffffffffffff02191690556003820160146101000a81549061ffff021916905550505b8080600101915050610b8a565b50565b6000806000600184148015610fa4575085600180890381548110610f9057fe5b906000526020600020906004020160000154145b1561144857600180880381548110610fb857fe5b90600052602060002090600402016001015485101561103f576040517f08c379a000000000000000000000000000000000000000000000000000000000815260040180806020018281038252600d8152602001807f496e76616c69642050726963650000000000000000000000000000000000000081525060200191505060405180910390fd5b600260009054906101000a900473ffffffffffffffffffffffffffffffffffffffff1673ffffffffffffffffffffffffffffffffffffffff166323b872dd336001808b038154811061108d57fe5b906000526020600020906004020160030160009054906101000a900473ffffffffffffffffffffffffffffffffffffffff166110f26001808d03815481106110d157fe5b9060005260206000209060040201600101548b61228390919063ffffffff16565b6040518463ffffffff1660e01b8152600401808473ffffffffffffffffffffffffffffffffffffffff1673ffffffffffffffffffffffffffffffffffffffff1681526020018373ffffffffffffffffffffffffffffffffffffffff1673ffffffffffffffffffffffffffffffffffffffff1681526020018281526020019350505050602060405180830381600087803b15801561118e57600080fd5b505af11580156111a2573d6000803e3d6000fd5b505050506040513d60208110156111b857600080fd5b81019080805190602001909291905050505060006001808903815481106111db57fe5b9060005260206000209060040201600001819055507f540000000000000000000000000000000000000000000000000000000000000060018089038154811061122057fe5b906000526020600020906004020160030160146101000a81548161ffff021916908360f01c0217905550600360009054906101000a900473ffffffffffffffffffffffffffffffffffffffff1673ffffffffffffffffffffffffffffffffffffffff1663a9059cbb33886040518363ffffffff1660e01b8152600401808373ffffffffffffffffffffffffffffffffffffffff1673ffffffffffffffffffffffffffffffffffffffff16815260200182815260200192505050602060405180830381600087803b1580156112f357600080fd5b505af1158015611307573d6000803e3d6000fd5b505050506040513d602081101561131d57600080fd5b810190808051906020019092919050505050867fc8b5e44960970fb71011318541ef5ab775a79f252adf45f49a93ef5d29e4fc3e876001808b038154811061136157fe5b9060005260206000209060040201600101546001808c038154811061138257fe5b906000526020600020906004020160030160009054906101000a900473ffffffffffffffffffffffffffffffffffffffff1633604051808581526020018481526020018373ffffffffffffffffffffffffffffffffffffffff1673ffffffffffffffffffffffffffffffffffffffff1681526020018273ffffffffffffffffffffffffffffffffffffffff1673ffffffffffffffffffffffffffffffffffffffff16815260200194505050505060405180910390a2868633809050925092509250612253565b60018414801561147757508560018089038154811061146357fe5b906000526020600020906004020160000154115b1561193c57600260009054906101000a900473ffffffffffffffffffffffffffffffffffffffff1673ffffffffffffffffffffffffffffffffffffffff166323b872dd336001808b03815481106114ca57fe5b906000526020600020906004020160030160009054906101000a900473ffffffffffffffffffffffffffffffffffffffff1661152f6001808d038154811061150e57fe5b9060005260206000209060040201600101548b61228390919063ffffffff16565b6040518463ffffffff1660e01b8152600401808473ffffffffffffffffffffffffffffffffffffffff1673ffffffffffffffffffffffffffffffffffffffff1681526020018373ffffffffffffffffffffffffffffffffffffffff1673ffffffffffffffffffffffffffffffffffffffff1681526020018281526020019350505050602060405180830381600087803b1580156115cb57600080fd5b505af11580156115df573d6000803e3d6000fd5b505050506040513d60208110156115f557600080fd5b81019080805190602001909291905050505060018088038154811061161657fe5b90600052602060002090600402016001015485101561169d576040517f08c379a000000000000000000000000000000000000000000000000000000000815260040180806020018281038252600d8152602001807f496e76616c69642050726963650000000000000000000000000000000000000081525060200191505060405180910390fd5b856001808903815481106116ad57fe5b906000526020600020906004020160000154036001808903815481106116cf57fe5b9060005260206000209060040201600001819055507f410000000000000000000000000000000000000000000000000000000000000060018089038154811061171457fe5b906000526020600020906004020160030160146101000a81548161ffff021916908360f01c0217905550600360009054906101000a900473ffffffffffffffffffffffffffffffffffffffff1673ffffffffffffffffffffffffffffffffffffffff1663a9059cbb33886040518363ffffffff1660e01b8152600401808373ffffffffffffffffffffffffffffffffffffffff1673ffffffffffffffffffffffffffffffffffffffff16815260200182815260200192505050602060405180830381600087803b1580156117e757600080fd5b505af11580156117fb573d6000803e3d6000fd5b505050506040513d602081101561181157600080fd5b810190808051906020019092919050505050867fc8b5e44960970fb71011318541ef5ab775a79f252adf45f49a93ef5d29e4fc3e876001808b038154811061185557fe5b9060005260206000209060040201600101546001808c038154811061187657fe5b906000526020600020906004020160030160009054906101000a900473ffffffffffffffffffffffffffffffffffffffff1633604051808581526020018481526020018373ffffffffffffffffffffffffffffffffffffffff1673ffffffffffffffffffffffffffffffffffffffff1681526020018273ffffffffffffffffffffffffffffffffffffffff1673ffffffffffffffffffffffffffffffffffffffff16815260200194505050505060405180910390a2868633809050925092509250612253565b60028414801561196c5750856000600189038154811061195857fe5b906000526020600020906004020160000154145b15611d7f57600360009054906101000a900473ffffffffffffffffffffffffffffffffffffffff1673ffffffffffffffffffffffffffffffffffffffff166323b872dd33600060018b03815481106119c057fe5b906000526020600020906004020160030160009054906101000a900473ffffffffffffffffffffffffffffffffffffffff16896040518463ffffffff1660e01b8152600401808473ffffffffffffffffffffffffffffffffffffffff1673ffffffffffffffffffffffffffffffffffffffff1681526020018373ffffffffffffffffffffffffffffffffffffffff1673ffffffffffffffffffffffffffffffffffffffff1681526020018281526020019350505050602060405180830381600087803b158015611a8f57600080fd5b505af1158015611aa3573d6000803e3d6000fd5b505050506040513d6020811015611ab957600080fd5b8101908080519060200190929190505050506000806001890381548110611adc57fe5b9060005260206000209060040201600001819055507f540000000000000000000000000000000000000000000000000000000000000060006001890381548110611b2257fe5b906000526020600020906004020160030160146101000a81548161ffff021916908360f01c0217905550600260009054906101000a900473ffffffffffffffffffffffffffffffffffffffff1673ffffffffffffffffffffffffffffffffffffffff1663a9059cbb33611bbf600060018c0381548110611b9e57fe5b9060005260206000209060040201600101548a61228390919063ffffffff16565b6040518363ffffffff1660e01b8152600401808373ffffffffffffffffffffffffffffffffffffffff1673ffffffffffffffffffffffffffffffffffffffff16815260200182815260200192505050602060405180830381600087803b158015611c2857600080fd5b505af1158015611c3c573d6000803e3d6000fd5b505050506040513d6020811015611c5257600080fd5b810190808051906020019092919050505050867fc8b5e44960970fb71011318541ef5ab775a79f252adf45f49a93ef5d29e4fc3e87600060018b0381548110611c9757fe5b906000526020600020906004020160010154600060018c0381548110611cb957fe5b906000526020600020906004020160030160009054906101000a900473ffffffffffffffffffffffffffffffffffffffff1633604051808581526020018481526020018373ffffffffffffffffffffffffffffffffffffffff1673ffffffffffffffffffffffffffffffffffffffff1681526020018273ffffffffffffffffffffffffffffffffffffffff1673ffffffffffffffffffffffffffffffffffffffff16815260200194505050505060405180910390a2868633809050925092509250612253565b600284148015611daf57508560006001890381548110611d9b57fe5b906000526020600020906004020160000154115b156121e557600360009054906101000a900473ffffffffffffffffffffffffffffffffffffffff1673ffffffffffffffffffffffffffffffffffffffff166323b872dd33600060018b0381548110611e0357fe5b906000526020600020906004020160030160009054906101000a900473ffffffffffffffffffffffffffffffffffffffff16896040518463ffffffff1660e01b8152600401808473ffffffffffffffffffffffffffffffffffffffff1673ffffffffffffffffffffffffffffffffffffffff1681526020018373ffffffffffffffffffffffffffffffffffffffff1673ffffffffffffffffffffffffffffffffffffffff1681526020018281526020019350505050602060405180830381600087803b158015611ed257600080fd5b505af1158015611ee6573d6000803e3d6000fd5b505050506040513d6020811015611efc57600080fd5b8101908080519060200190929190505050508560006001890381548110611f1f57fe5b9060005260206000209060040201600001540360006001890381548110611f4257fe5b9060005260206000209060040201600001819055507f410000000000000000000000000000000000000000000000000000000000000060006001890381548110611f8857fe5b906000526020600020906004020160030160146101000a81548161ffff021916908360f01c0217905550600260009054906101000a900473ffffffffffffffffffffffffffffffffffffffff1673ffffffffffffffffffffffffffffffffffffffff1663a9059cbb33612025600060018c038154811061200457fe5b9060005260206000209060040201600101548a61228390919063ffffffff16565b6040518363ffffffff1660e01b8152600401808373ffffffffffffffffffffffffffffffffffffffff1673ffffffffffffffffffffffffffffffffffffffff16815260200182815260200192505050602060405180830381600087803b15801561208e57600080fd5b505af11580156120a2573d6000803e3d6000fd5b505050506040513d60208110156120b857600080fd5b810190808051906020019092919050505050867fc8b5e44960970fb71011318541ef5ab775a79f252adf45f49a93ef5d29e4fc3e87600060018b03815481106120fd57fe5b906000526020600020906004020160010154600060018c038154811061211f57fe5b906000526020600020906004020160030160009054906101000a900473ffffffffffffffffffffffffffffffffffffffff1633604051808581526020018481526020018373ffffffffffffffffffffffffffffffffffffffff1673ffffffffffffffffffffffffffffffffffffffff1681526020018273ffffffffffffffffffffffffffffffffffffffff1673ffffffffffffffffffffffffffffffffffffffff16815260200194505050505060405180910390a2868633809050925092509250612253565b6040517f08c379a00000000000000000000000000000000000000000000000000000000081526004018080602001828103825260188152602001807f496e76616c696420747261646520706172616d6574657273000000000000000081525060200191505060405180910390fd5b9450945094915050565b600260009054906101000a900473ffffffffffffffffffffffffffffffffffffffff1681565b6000808314156122965760009050612303565b60008284029050828482816122a757fe5b04146122fe576040517f08c379a000000000000000000000000000000000000000000000000000000000815260040180806020018281038252602181526020018061230a6021913960400191505060405180910390fd5b809150505b9291505056fe536166654d6174683a206d756c7469706c69636174696f6e206f766572666c6f77a265627a7a72315820d15cad387eea7552fc06785931597815d21e4067f41fa10e8d1ea8f441b833fd64736f6c63430005100032",
  "source": "pragma solidity ^0.5.2;\n\nimport \"openzeppelin-solidity/contracts/token/ERC20/ERC20.sol\";\n\n\ncontract Orderbook {\n\n using SafeMath for uint;\n \nstruct Order\n{\n    uint Amount;\n    uint Price;\n    uint TimeStamp;\n    address Trader;\n    bytes2 Status;\n}\n\nOrder[] Buys;\nOrder[] Sells;\nERC20 public ERC20Base;\nERC20 public ERC20Counter;\naddress owner;\n\nmodifier onlyOwner {\n        if (msg.sender!=owner) revert();\n         _;\n         }\n         \n\nconstructor (address Base,address Counter) public\n{\nERC20Base = ERC20(Base);\nERC20Counter = ERC20(Counter);\nowner = msg.sender;\n}\n\nevent BuyAdded(\n              uint indexed Order_No,\n              uint Amt,\n              uint Price,\n              address trader\n    );\n\nevent SellAdded(\n              uint indexed Order_No,\n              uint Amt,\n              uint Price,\n              address trader\n    );\n\nevent TradeAdd(\n              uint indexed Order_No,\n              uint Amt,\n              uint Price,\n              address maker,\n              address taker\n    );\n    \n    \nfunction addBuy(uint Amt, uint BuyPrice) public returns (uint) \n{\n    \n    ERC20Base.transferFrom(msg.sender, address(this),Amt.mul(BuyPrice));\n    Buys.push(Order(Amt,BuyPrice,now,msg.sender,'A'));\n    emit SellAdded(Buys.length,Amt,BuyPrice,msg.sender);\n\treturn Buys.length;\n}\n\nfunction addSell(uint Amt, uint SellPrice) public returns (uint) \n{\n    \n    ERC20Counter.transferFrom(msg.sender, address(this),Amt);\n    Sells.push(Order(Amt,SellPrice,now,msg.sender,'A'));\n    emit BuyAdded(Sells.length,Amt,SellPrice,msg.sender);\n\treturn Sells.length;\n}\n\n\nfunction viewLengthBuy() public view returns (uint) \n{\n    return Buys.length;\n}\n\nfunction viewLengthSell() public view returns (uint) \n{\n    return Sells.length;\n}\n\nfunction viewBuy(uint OrderNo) public view returns (uint,uint,uint, address) \n{\n    return (\t\n                    Buys[OrderNo-1].Amount,\n                    Buys[OrderNo-1].Price,\n                    Buys[OrderNo-1].TimeStamp,\n                    Buys[OrderNo-1].Trader\n                    );\n}\n\nfunction viewSell(uint OrderNo) public view returns (uint,uint,uint,address) \n{\n    return (\t\n                    Sells[OrderNo-1].Amount,\n                    Sells[OrderNo-1].Price,\n                    Sells[OrderNo-1].TimeStamp,\n                    Sells[OrderNo-1].Trader\n                    );\n}\n\nfunction trade(uint OrderNo, uint Amt, uint TradePrice, uint trade_type) public returns ( uint, uint , address)  \n{\n    \n    // 1 is Buy trade , 2 is Sell Trade\n    \n    if (trade_type == 1 && Sells[OrderNo-1].Amount == Amt)\n    {\n        require(TradePrice >= Sells[OrderNo-1].Price, \"Invalid Price\");\n        ERC20Base.transferFrom(msg.sender, Sells[OrderNo-1].Trader,Amt.mul(Sells[OrderNo-1].Price));\n        Sells[OrderNo-1].Amount = 0;\n        Sells[OrderNo-1].Status = 'T';\n        ERC20Counter.transfer(msg.sender, Amt);\n        emit TradeAdd(OrderNo, Amt, Sells[OrderNo-1].Price,Sells[OrderNo-1].Trader,msg.sender);\n        return (\t\n                    OrderNo,\n                    Amt,\n                    msg.sender\n                    );          \n    }\n    else if (trade_type == 1 && Sells[OrderNo-1].Amount > Amt)\n    {\n        ERC20Base.transferFrom(msg.sender, Sells[OrderNo-1].Trader,Amt.mul(Sells[OrderNo-1].Price));\n        require(TradePrice >= Sells[OrderNo-1].Price, \"Invalid Price\");\n        Sells[OrderNo-1].Amount = Sells[OrderNo-1].Amount - Amt;\n        Sells[OrderNo-1].Status = 'A';\n        ERC20Counter.transfer(msg.sender, Amt);\n        emit TradeAdd(OrderNo, Amt, Sells[OrderNo-1].Price,Sells[OrderNo-1].Trader,msg.sender);\n\t\treturn (\t\n                    OrderNo,\n                    Amt,\n                    msg.sender\n                    );        \n    }\n    else if (trade_type == 2 && Buys[OrderNo-1].Amount == Amt)\n    {\n        ERC20Counter.transferFrom(msg.sender, Buys[OrderNo-1].Trader,Amt);\n        Buys[OrderNo-1].Amount = 0;\n        Buys[OrderNo-1].Status = 'T';\n        ERC20Base.transfer(msg.sender, Amt.mul(Buys[OrderNo-1].Price));\n        emit TradeAdd(OrderNo, Amt, Buys[OrderNo-1].Price,Buys[OrderNo-1].Trader,msg.sender);\n\t\treturn (\t\n                    OrderNo,\n                    Amt,\n                    msg.sender\n                    );        \n    }\n    else if (trade_type == 2 && Buys[OrderNo-1].Amount > Amt)\n    {\n        ERC20Counter.transferFrom(msg.sender, Buys[OrderNo-1].Trader,Amt);\n        Buys[OrderNo-1].Amount = Buys[OrderNo-1].Amount - Amt;\n        Buys[OrderNo-1].Status = 'A';\n        ERC20Base.transfer(msg.sender, Amt.mul(Buys[OrderNo-1].Price));\n        emit TradeAdd(OrderNo, Amt, Buys[OrderNo-1].Price,Buys[OrderNo-1].Trader,msg.sender);\n\t\treturn (\t\n                    OrderNo,\n                    Amt,\n                    msg.sender\n                    );        \n    }\n    else\n    {\n        revert(\"Invalid trade parameters\"); \n    }\n}\n    \nfunction decommission() public onlyOwner\n{\n    uint i = 0;\n    while ( i <= Buys.length || i <= Sells.length)\n    {\n        if( i <= Buys.length)\n        {\n        uint Amt =  Buys[i].Amount;\n        Amt = Amt.mul(Buys[i].Price);\n        ERC20Base.transfer(Buys[i].Trader,Amt);\n        delete Buys[i];\n        }\n        \n        if( i <= Sells.length)\n        {\n        ERC20Counter.transfer(Sells[i].Trader,Sells[i].Amount);\n        delete Sells[i];\n        }\n    i++;\n        \n    }\n\n    \n}\n    \n}\n",
  "sourcePath": "/home/dev/Desktop/Blockchain/My_Work/contracts/orderbook.sol",
  "compiler": {
    "name": "solc",
    "version": "0.5.16+commit.9c3226ce.Emscripten.clang"
  },
  "schemaVersion": "3.4.2",
  "updatedAt": "2021-07-27T15:56:59.520Z",
  "networkType": "ethereum",
  "devdoc": {
    "methods": {}
  },
  "userdoc": {
    "methods": {}
  }
}